:040000006F208036B7
:100004000000000000000000680200007002000010
:100014000000000066230000000000000000000053
:1000240066230000662300000000000000000000BA
:1000340066230000000000006623000000000000AA
:100044006623000066230000662300006623000088
:100054006623000066230000662300006623000078
:100064006623000066230000662300006623000068
:100074006623000066230000662300006623000058
:100084006623000066230000662300006623000048
:100094006623000066230000662300006623000038
:1000A4006623000066230000662300006623000028
:1000B40066230000D61A00006623000066230000B1
:1000C4006623000066230000662300006623000008
:1000D40066230000662300006623000066230000F8
:1000E40066230000662300006623000066230000E8
:1000F40066230000662300006623000066230000D8
:100104000000000066230000662300006623000050
:1001140066230000662300006623000066230000B7
:1001240066230000662300006623000066230000A7
:100134006623000066230000662300006623000097
:100144006623000066230000662300006623000087
:1001540066230000AC09000066230000662300004B
:100164006623000066230000662300006623000067
:100174006623000066230000662300006623000057
:100184006623000066230000662300006623000047
:100194006623000066230000662300006623000037
:1001A400000000000000000000000000000000004B
:0C01B4000000000000000000000000003F
:1001C0003D432A876373C3029377F700BDEFADE524
:1001D000937606FF3D8ABA960CC34CC30CC74CC736
:1001E0004107E36BD7FE11E28280B306C3408A0663
:1001F0009702000096966780A6002307B700A30623
:10020000B7002306B700A305B7002305B700A30472
:10021000B7002304B700A303B7002303B700A3026A
:10022000B7002302B700A301B7002301B700A30062
:10023000B7002300B700828093F5F50F93968500F1
:10024000D58D93960501D58D61B7939627009702BA
:10025000000096968682E78086FA9680C1171D8FE9
:100260003E96E374C3F8A5B7411122C6000801A069
:10027000411122C60008B7E700E03707EFBE1307B9
:100280000708B8C701A0411122C6000883C78181B1
:1002900093F7F70F93F7F70713F7F70F238CE18026
:1002A00083D741821397070141839307001063129C
:1002B000F704B737024093870740FC2313F7F70F83
:1002C000B737024093870740719B1377F70FF8A366
:1002D000B737024093870740FC2313F7F70FB73770
:1002E000024093870740136727001377F70FF8A39F
:1002F000B1AC83D741821397070141839307002054
:100300006312F704B737024093870740FC2313F7C3
:10031000F70FB737024093870740719B1377F70FAA
:10032000F8A3B737024093870740FC2313F7F70F72
:10033000B737024093870740136737001377F70FEB
:10034000F8A329A483D74182139707014183930718
:100350000030631EF702B737024093870740FC2343
:1003600013F7F70FB737024093870740719B137756
:10037000F70FF8A3B737024013870740B73702409B
:100380009387074078231377F70FF8A3C1A283D789
:100390004182139707014183930700406318F71ABE
:1003A000B737024093870740FC2313F7F70FB7379F
:1003B000024093870740719B1377F70FF8A3B73775
:1003C000024093870740FC2313F7F70FB73702402B
:1003D00093870740136717001377F70FF8A3B73712
:1003E0000240938707409C2313F7F70FB73702406B
:1003F00093870740136707F81377F70F98A3B7376A
:10040000024093870740982B018B1367870098ABB6
:10041000983B018B98BBB82B018B13674700B8AB97
:10042000B83B018BB8BBB737024093870740D82B46
:100430001377F70FD43B93F6F60FA206558FF42BE4
:1004400093F6F60FC206558FFC3B93F7F70FE207C2
:10045000D98F3E87B7370240938707401367F70F5E
:100460009375F70FD42B818A3686AE86D18ED4ABA6
:100470009356870093F5F60FD43B818A3686AE8675
:10048000D18ED4BB9356070193F5F60FF42B818AD6
:100490003686AE86D18EF4AB13568701F83B018BBE
:1004A000BA863287558FF8BBB7370240938707402B
:1004B00037070020130707009375F70F83C6470619
:1004C000818A3686AE86D18E2382D70693568700E0
:1004D00093F5F60F83C65706818A3686AE86D18E8F
:1004E000A382D7069356070193F5F60F83C66706D6
:1004F000818A3686AE86D18E2383D706135687012E
:1005000003C77706018BBA863287558FA383E70628
:10051000B73702409387074003C7470E018B136725
:1005200057032382E70E03C7570E018BA382E70E02
:10053000B737024093870740130700FD2380E70E7B
:10054000B7370240938707400947B8A701003244F4
:1005500041018280411106C622C400080545EF30E2
:1005600040220145EF3060160545EF304012054549
:10057000EF3060190545EF30C01C85458567138550
:100580000780EF20507F0100B24022444101828069
:10059000411122C60008B7370240938707404167E0
:1005A0001D0798CBB7370240938707401307000415
:1005B000239CE708B73702409387074013070020C2
:1005C000239EE708B73702409387074013070020B0
:1005D0002390E70AB7370240938707401387C18506
:1005E000D8CFB7370240938707403707002013075B
:1005F0004714F8CFB7370240938707401387C1A944
:10060000B8D3B7370240938707400947238DE70CDB
:10061000B737024093870740A38D070CB7370240D6
:10062000938707400947238FE70CB737024093872A
:10063000074009472381E70E0100324441018280CF
:10064000797106D622D40018232EA4FC8327C4FD7A
:10065000D1CBB737024093870740194798A3294564
:10066000EF30E04CB7370240938707402380070004
:10067000B737024093870740414798B3B7370240E6
:10068000938707401307900298A3B73702409387D8
:10069000074013077002B8A3E53DB73702409387C0
:1006A00007409C2313F7F70FB737024093870740A3
:1006B000136707011377F70F98A3930750052326B5
:1006C000F4FE8327C4FEFD8B0547B316F70037E71A
:1006D00000E08327C4FE9583938707048A07BA97AF
:1006E00094C3B1A0B737024093870740194798A336
:1006F0002945EF30C043B737024093870740238036
:100700000700930750052324F4FE832784FEFD8B06
:100710000547B316F70037E700E0832784FE95838B
:10072000938707068A07BA9794C30F100000010049
:10073000B250225445618280797106D622D40018C5
:10074000AA87232CB4FC3687A30FF4FCB287231EA0
:10075000F4FCBA87230FF4FC8347F4FD638207247B
:100760000347F4FDBD4763EDE722B73702409387A7
:1007700007409C4BA307F4FE8347F4FE0347F4FDB8
:1007800085463397E60042074183F98F6388072047
:100790000347F4FD9387C1C9BA979C2393F7F70FDA
:1007A000858B639B071EB7370240938707409C4F9A
:1007B0002307F4FE8347E4FE0347F4FD85463397A1
:1007C000E60042074183F98FE5C78347F4FE0347FC
:1007D000F4FD410785463397E60042074183F98FD0
:1007E000F1E78347F4FDFD1713972700B737024061
:1007F0009387E74DBA979C23A306F4FE8347E4FD55
:100800009DEF8347D4FEA18B91EF0347F4FDB7978B
:100810000010938767D1BA978A073E87832784FDA4
:100820001CC3E5A00347F4FDB7970010938777D06A
:10083000BA978A073E87832784FD1CC3F9A0034724
:10084000E4FD85476312F7068347D4FEA18B9DE73D
:100850000347F4FDB7970010938767D1BA978A07CB
:100860009843B7070020BA973E878357C4FD3E865A
:10087000832584FD3A85EF30004941A80347F4FD04
:10088000B7970010938777D0BA978A079843B7072E
:100890000020BA973E878357C4FD3E86832584FD9A
:1008A0003A85EF30404695A08147E5A88147D5A815
:1008B0008347E4FD91EF0347F4FDB797001093875A
:1008C00067D1BA978A073E87832784FD1CC335A862
:1008D0000347E4FD85476318F7020347F4FDB79724
:1008E0000010938767D1BA978A079843B70700200B
:1008F000BA973E878357C4FD3E86832584FD3A859B
:10090000EF30604019A0814769A80347F4FD938741
:10091000C1C9BA979C2393F7F70F8346F4FD93E779
:10092000170013F7F70F9387C1C9B69798A303472A
:10093000F4FDB7970010938767D3BA978A073E876D
:100940008357C4FD1EA38347F4FDFD1713972700AB
:10095000B73702409387E74DBA979C2393F7F70F79
:100960000347F4FD7D17931627003737024013071E
:10097000E74D3697F19B93F7F70F1CA30347F4FD60
:100980007D1793162700373702401307E74D369738
:100990001CA30100854731A0814721A0814711A0F8
:1009A00081473E85B250225445618280011122CE9A
:1009B0000010B737024093870740BC27A305F4FE19
:1009C000B737024093870740BC372305F4FE8347BF
:1009D000B4FE898B6380072C8347A4FE93F707033B
:1009E00041476380E72A130700026385E7006386B7
:1009F000072049AC8347A4FE93F7F70313071002BF
:100A00006389E71013072002638DE71613070002BE
:100A10006391E71E83D76182C207C18381EBB73739
:100A20000240938707402147A38DE70C83C71182BB
:100A300093F7F70F93F70706F1E383C7018293F764
:100A4000F70F15476381E70A19476398E70A83D7C9
:100A500061821397070141839307F00363E7E7007F
:100A600083D76182C207C18319A0930700042316AC
:100A7000F4FE83A7C1810357C4FE3A86BE85138561
:100A8000C185EF30402883D76182139707014183E6
:100A90008357C4FEB307F74013970701418323939D
:100AA000E18203A7C1818357C4FE3E9723AEE18054
:100AB000B7370240938707400357C4FE239CE70CD7
:100AC000B73702409387074083C7A70D13F7F70F87
:100AD000B737024093870740134787001377F70F14
:100AE000238DE70C21A8B73702409387074003C73F
:100AF00091821377F70FB8B311A0010083C78181EA
:100B000093F7F70FE207E18763D7070EEFF0AFF730
:100B1000DDA0B73702409387074083C7E70D93F7FF
:100B2000F70FE207E187F19BE207E18793E72700F0
:100B3000139787016187B737024093870740137780
:100B4000F70F238FE70CB73702409387074083C71F
:100B5000E70D13F7F70FB7370240938707401347A6
:100B600087001377F70F238FE70C9387C1C99C3356
:100B700093F7F70FF99B13F7F70F9387C1C998B352
:100B8000A5A8B73702409387074083C7270E93F77E
:100B9000F70FE207E187F19BE207E18793E7270080
:100BA000139787016187B737024093870740137710
:100BB000F70F2381E70EB73702409387074083C7BB
:100BC000270E13F7F70FB7370240938707401347F5
:100BD00087001377F70F2381E70E9387C1C9BC23E2
:100BE00093F7F70FF99B13F7F70F9387C1C9B8A3D2
:100BF00021A0010041A8010071A08347A4FE93F742
:100C0000F703A5EF8347A4FE93F70704A1C783C7A3
:100C1000118293F7F70F93F707068DCF83C71182E1
:100C200093F7F70F13F70706930700026311F70214
:100C300083C7018293F7F70F3E87A547631BF70031
:100C400003C7C1852380E1842393018221A0010091
:100C500011A0010083D76182C207C1838DE3B7373A
:100C6000024093870740239C070CB73702409387C5
:100C700007402147238DE70C19A0010021A00100A6
:100C800011A00100B7370240938707400947B8A772
:100C90006F0050128347B4FE93F70702E3860706FE
:100CA000B7370240938707402947238DE70CB737B2
:100CB0000240938707402947A38DE70C9387C1859E
:100CC0009823A380E1829387C18598332380E182B2
:100CD0009387C185F823FC33A207D98F13970701A7
:100CE00041832393E1829387C185B823BC33A20754
:100CF000D98F1397070141832391E1829387C1859F
:100D0000D823DC33A207D98F13970701418323929D
:100D1000E182231604FEA30704FE83C7118293F722
:100D2000F70F93F70706638D071683C7118293F7B2
:100D3000F70F13F70706930700026319F76C83C7D1
:100D4000018293F7F70F2D476367F7141397270076
:100D50009567938747FEBA979C43828783D74182E2
:100D6000C207C18391EF83D72182C207C183A183C8
:100D7000C207C18313F7F70F2386E1826F00E06A91
:100D800083D7418213970701418385476310F70298
:100D900083D72182C207C183A183C207C18313F70E
:100DA000F70F9387C18298B36F002068FD57A307A0
:100DB000F4FE6F00806783D74182C207C18391EB45
:100DC00083D72182C207C18313F7F70F2388E182FB
:100DD000A9AD83D741821397070141838547631CDF
:100DE000F70083D72182C207C18313F7F70F9387D8
:100DF000018398B31DADFD57A307F4FE3DA583D72E
:100E00004182C207C18399EB83C7C18213F7F70FF1
:100E1000238EE18485472316F4FE01AD83D74182FA
:100E20001397070141838547631DF7009387C182AC
:100E30009C3313F7F70F238EE18485472316F4FEC6
:100E4000EDA3FD57A307F4FECDA383D74182C207CC
:100E5000C18399EB83C7018313F7F70F238EE184D6
:100E600085472316F4FED1A383D741821397070148
:100E700041838547631DF700938701839C3313F7F4
:100E8000F70F238EE18485472316F4FE79ABFD57D7
:100E9000A307F4FE59ABFD57A307F4FE010071A3AD
:100EA00083C7018293F7F70F2D47636DF7541397AC
:100EB0002700956793874701BA979C43828783D71A
:100EC0002182C207C183A183C207C18393F7F70FB1
:100ED000130720026365F718139727009567938718
:100EE0004704BA979C43828715671307070D23AE03
:100EF000E180956783C7070D2316F4FEADA2156741
:100F00001307470E23AEE18095679387470EBC23F6
:100F100013970701418395679387470EBC33C20738
:100F2000C183A207C207C183BA972316F4FE25AA7C
:100F300083D74182C207C18391EB15671307670FFF
:100F400023AEE180A5472316F4FE31AA83D7418260
:100F50001397070141838547631BF7001567130744
:100F6000F71023AEE180A5472316F4FEEDA8FD5748
:100F7000A307F4FECDA883D74182C207C18399EBB2
:100F800015671307071223AEE1809307E0032316CA
:100F9000F4FED1A883D74182139707014183854787
:100FA000631CF70015671307071623AEE18093074C
:100FB00040032316F4FE45A8FD57A307F4FE65A0E1
:100FC00083D72182C207C18393F7F70F0547638751
:100FD000E70205476344F70089CB95A00947638A78
:100FE000E7020D476382E70499A81387018123AEC6
:100FF000E18083C701812316F4FEB1A015671307B2
:10100000071A23AEE180956783C7071A2316F4FEFB
:101010001DA815671307071B23AEE180956783C7DB
:10102000071B2316F4FE05A015671307471C23AE04
:10103000E180956783C7471C2316F4FE29A0FD575E
:10104000A307F4FE010005A015671307471923AE97
:10105000E180956783C747192316F4FE29A0FD5741
:10106000A307F4FE010083D76182C207C18303573F
:10107000C4FE6376F7000357C4FE2393E18283D74F
:1010800061821397070141839307F00363E7E70049
:1010900083D76182C207C18319A093070004231676
:1010A000F4FE83A7C1810357C4FE3A86BE8513852B
:1010B000C185EF20504503A7C1818357C4FE3E97E9
:1010C00023AEE1809DA683D72182C207C18313F797
:1010D000F70FA384E18291AE83C7818213F7F70FE4
:1010E000238EE18483D7618213970701418385476B
:1010F00063F4E73205472393E18239AE83D7218237
:10110000C207C18313F7F70F2384E1820547A38544
:10111000E18221AE83C7118293F7F70F13F7F7012E
:1011200089476316F70483D74182C207C18393F7C7
:10113000F70F130710086387E70013072008638B76
:10114000E7000DA0B7370240938707400947238F78
:10115000E70C99A8B73702409387074009472381D6
:10116000E70E99A0FD57A307F4FE010035A883C739
:10117000118293F7F70FFD8B85E783D72182C20792
:10118000C18313F7F70F8547631AF72883C7A18236
:1011900093F7F70FF99B13F7F70F2385E182BDACA7
:1011A000FD57A307F4FE9DAC95AC83C7118293F75E
:1011B000F70FFD8BC5EF83D72182C207C18313F7D9
:1011C000F70F85476318F70295679387470EFC333F
:1011D00093F7070281CF83C7A18293F7F70F93E7B5
:1011E000170013F7F70F2385E1821DACFD57A30706
:1011F000F4FE3DA483D72182C207C18313F7F70F02
:1012000089476311F70683D741821397070141830A
:1012100093070010630DF70283D7418213970701EC
:101220004183930700206304F70283D74182139719
:101230000701418393070030630BF70083D7418296
:1012400013970701418393070040631BF71C83C773
:10125000818193F7F70F93E707F813F7F70F238CC4
:10126000E1807DAAFD57A307F4FE5DAA83C7118222
:1012700093F7F70F13F7F70189476317F70883D739
:101280002182C207C18393F7F70FBDEB83D7418259
:10129000C207C18393F7F70F130710086387E700AE
:1012A000130720086386E702B9A0B7370240938787
:1012B000074083C7E70D13F7F70FB737024093874F
:1012C0000740136737001377F70F238FE70C89A0C8
:1012D000B73702409387074083C7270E13F7F70FEE
:1012E000B737024093870740136737001377F70F2C
:1012F0002381E70E31A8FD57A307F4FE010009A8DA
:10130000FD57A307F4FE29AAFD57A307F4FE09AA77
:1013100001AA238E018483D7618213970701418339
:10132000854763F1E71005472393E182E5A8238E03
:1013300001849387C185A380070083C7118293F737
:10134000F70FFD8B91EF83C7A18293F7F70F858B82
:1013500089C70947238EE18451A8238E018479A08F
:1013600083C7118293F7F70F13F7F7018947631CBF
:10137000F70683D74182C207C18313F7F70F93079C
:1013800010086313F702B73702409387074083C7FB
:10139000E70D93F7F70F13F737008D476318F7043E
:1013A0000547238EE18499A083D74182C207C18378
:1013B00013F7F70F930720086313F702B7370240BC
:1013C0009387074083C7270E93F7F70F13F737006C
:1013D0008D47631DF7000547238EE18401A8FD5763
:1013E000A307F4FE21A0FD57A307F4FE83D7618273
:1013F000139707014183894763F8E702094723935D
:10140000E1821DA0FD57A307F4FE05A0010031A84D
:10141000010021A8010011A8010001A8010031A0CC
:10142000010021A0010011A001000347F4FE930771
:10143000F00F6311F702B7370240938707402D473B
:10144000238DE70CB7370240938707402D47A38DC4
:10145000E70C5DA083C7118293F7F70FE207E187DE
:1014600063D2070683D761821397070141839307ED
:10147000000463E7E70083D76182C207C18319A034
:10148000930700042316F4FE83D7618213970701A4
:1014900041838357C4FEB307F74013970701418385
:1014A0002393E182B7370240938707400357C4FE76
:1014B000239CE70CB7370240938707402147238DD1
:1014C000E70C1DA883D76182C207C18399EFB737A4
:1014D000024093870740239C070CB737024093874D
:1014E00007402147238DE70C01A8B73702409387B7
:1014F00007402147A38DE70CB73702409387074089
:1015000013070002B8A77DA08347B4FE858B85CB67
:1015100023840182A384018223850182A385018221
:10152000B737024093870740A3810700EFF04F864B
:10153000B7370240938707400547B8A7A5A8834758
:10154000B4FE918BADC3B737024093870740114774
:10155000B8A72945EF20A05DB73702409387074021
:101560009C3793F7F70F918B8DC783C7A18293F7B1
:10157000F70F93E7270013F7F70F2385E18283C75F
:10158000A18213F7F70F8D476316F702EF0070463D
:1015900015A083C7A18293F7F70FF59B13F7F70FF9
:1015A0002385E18201A8B7370240938707400347AC
:1015B000B4FEB8A7010072440561730020304111E8
:1015C00006C622C40008B7370240938707409C3301
:1015D00013F7F70FB7370240938707401367870069
:1015E0001377F70F98B32145EF20A05CB73702407F
:1015F000938707409C3313F7F70FB7370240938761
:1016000007405D9B1377F70F98B30545EF20605AAD
:101610000100B240224441018280411106C622C429
:1016200000082D220945EF10304EEF20E04BB707A0
:10163000002083A7870ABE859567138507F7EF20EB
:10164000A077EF10A04CAA87BE859567138507F891
:10165000EF2080769567138507F9EF203007D921B1
:101660009567138507FBEF207006B707002003A7D7
:10167000870A896793870771B357F702C207C18347
:10168000FD17C207C183BE850545652E9567138585
:1016900047FCEF20B003EFE0FFEB0545EFE05FFA1A
:1016A000EF00D03083C7B18293F7F70FE5DFEF008B
:1016B000B004CDBF411106C622C40008B7170240CE
:1016C0009843B71702401367170098C3B717024033
:1016D000D443B71702403707FFF0758FD8C3B71749
:1016E00002409443B71702403707F7FE7D17758F06
:1016F00098C3B71702409443B71702403707FCFF5F
:101700007D17758F98C3B7170240D443B7170240AF
:10171000370701FF7D17758FD8C3B7170240944371
:10172000B7170240370700EC7D17758F98C3B717BE
:1017300002403707FF0098C7B717024023A60702E9
:10174000E92A0100B240224441018280011122CEE7
:101750000010232204FE232604FE232004FE23245B
:1017600004FEB7170240DC43B18B2322F4FE0327AB
:1017700044FE91476304F702032744FEA147630830
:10178000F702832744FE63900714B707002037173A
:101790007A001307072023A4E70A81A2B7070020D5
:1017A00037177A001307072023A4E70A3DA2B717CB
:1017B0000240D843B7073C00F98F2326F4FEB71741
:1017C0000240D843C167F98F2320F4FE8327C4FE6B
:1017D000C98389072326F4FE0327C4FE89476315BE
:1017E000F700C9472326F4FE0327C4FEBD4763184C
:1017F000F700B5472326F4FE85472324F4FE03278C
:10180000C4FEC1476315F700BD472326F4FE032736
:10181000C4FEC5476315F700C1472326F4FE83279E
:1018200004FEB1E3B7470240938707809C43C18B16
:1018300091CF0327C4FEB7177A0093870720330799
:10184000F702B707002023A4E70AB1A80327C4FEC4
:10185000B7173D00938707903307F702B7070020BB
:1018600023A4E70A89A0B7170240D843B7070200AC
:10187000F98F91CF0327C4FEB7173D0093870790D8
:101880003307F702B707002023A4E70A29A8032794
:10189000C4FEB7177A00938707203307F702B7070C
:1018A000002023A4E70A032784FE85476316F70276
:1018B000B707002083A7870A13D71700B7070020B0
:1018C00023A4E70A11A8B707002037177A001307E7
:1018D000072023A4E70A11A00100B7170240DC4348
:1018E000918313F7F700B707002093878703BA9710
:1018F0009C2393F7F70F2322F4FEB707002003A7DA
:10190000870A832744FE3357F700B707002023A434
:10191000E70A0100724405618280411106C622C4B3
:10192000000831200100B2402244410182800111AF
:1019300022CE0010232604FE232404FEB717024003
:101940009443B71702404167558F98C3B7170240B9
:101950009843B7070200F98F2324F4FE8327C4FEBF
:1019600085072326F4FE832784FE91E70327C4FE20
:101970008567E31DF7FCB71702409843B7070200DD
:10198000F98F89C785472324F4FE19A0232404FE78
:10199000032784FE85476312F70A37170240B717FB
:1019A00002405843D8C337170240B7170240584384
:1019B000D8C3B7170240D843B71702401367074090
:1019C000D8C3B7170240D443B71702403707C1FF47
:1019D0007D17758FD8C3B7170240D443B71702409D
:1019E00037072900558FD8C3B71702409443B7175C
:1019F000024037070001558F98C30100B717024016
:101A00009843B7070002F98FF5DBB7170240D843B8
:101A1000B7170240719BD8C3B7170240D843B71716
:101A2000024013672700D8C30100B7170240DC4308
:101A300013F7C700A147E31AF7FE010072440561DE
:101A40008280397106DE22DC8000AA872E87231768
:101A5000F4FCBA872316F4FC85450945EF10703A6B
:101A60008357E4FC2314F4FE8357C4FC2312F4FED2
:101A7000231504FE231304FE930744FEBE85B70717
:101A8000004013850740EF10B05305468545B70762
:101A9000004013850740EF10306E9307D002230EED
:101AA000F4FC8547A30EF4FC8947230FF4FC85471B
:101AB0002320F4FE9307C4FD3E85EF109006854574
:101AC000B707004013850740EF1010660100F25081
:101AD000625421618280411122C600088545B70702
:101AE000004013850740EF10B06FAA879DC785455A
:101AF000B707004013850740EF105075952E83C738
:101B0000118493F7F70F91CB83C7218493F7F70FD5
:101B1000850713F7F70F2381E18401003244410167
:101B200073002030597186D6A2D48018232804FC73
:101B3000232A04FC232C04FC232E04FC232004FE73
:101B4000232204FE232404FE232604FE232204FC75
:101B5000232404FC232604FC232C04F8232E04F85D
:101B6000232004FA232204FA232404FA232604FA65
:101B7000232804FA232A04FA232C04FA232E04FA35
:101B8000232004FC854513054020EF1030238545B4
:101B90000545EF10501E3165EF109019FD472312D7
:101BA000F4FC232604FC930744FCBE85B7170140D0
:101BB00013850780EF102053B70702401385870075
:101BC000EF005076B72701409387C744232CF4F8E1
:101BD0009387C1CA232EF4F8232004FA9D472322B9
:101BE000F4FA232404FA930700082326F4FA93074F
:101BF00000102328F4FA93070040232AF4FA9307ED
:101C00000002232CF4FA8D67232EF4FA232004FC1F
:101C1000930784F9BE85B707024013858700EF104C
:101C200080218545B707024013858700EF10202BE0
:101C3000B727014013850740EF00A07B232804FC51
:101C40008547232AF4FC8547232CF4FCB7070E00B4
:101C5000232EF4FC232004FE9D472302F4FE930769
:101C600004FDBE85B727014013850740EF00607E65
:101C70009D4605468145B727014013850740EF0083
:101C800090239D4609468545B727014013850740A7
:101C9000EF0070229D460D468945B7270140138508
:101CA0000740EF0050219D4611468D45B727014062
:101CB00013850740EF0030209D4615469145B72714
:101CC000014013850740EF00101F9D4619469545BA
:101CD000B727014013850740EF00F01D9D461D46C4
:101CE0009945B727014013850740EF00D01C854573
:101CF000B727014013850740EF0090098545B727B6
:101D0000014013850740EF00D004B7270140138539
:101D10000740EF00D00B0100B727014013850740B3
:101D2000EF00100DAA87EDFBB72701401385074090
:101D3000EF00100F0100B727014013850740EF00A7
:101D40005010AA87EDFBB727014013850740EF002D
:101D5000103BAA873E872399E1828545B72701403A
:101D600013850740EF00F0100100B650265465615E
:101D70008280011122CE0010231704FE83D7C1CA2E
:101D80001397070141839307C05D63F4E700A167E0
:101D900011A081471397070141878317E4FED98F6C
:101DA000C207C1872317F4FE9387C1CABE231397C6
:101DB000070141839307C05D63F4E700916711A0B9
:101DC00081471397070141878317E4FED98FC20724
:101DD000C1872317F4FE9387C1CADE231397070137
:101DE00041839307C05D63F4E700896711A08147D1
:101DF0001397070141878317E4FED98FC207C18774
:101E00002317F4FE9387C1CAFE231397070141836A
:101E10009307C05D63F4E700856711A081471397BE
:101E2000070141878317E4FED98FC207C1872317B3
:101E3000F4FE9387C1CA9E27139707014183930736
:101E4000C05D63F6E70085679387078011A081472F
:101E50001397070141878317E4FED98FC207C18713
:101E60002317F4FE8357E4FE3E85724405618280A9
:101E7000411106C622C426C2000883D741848507C3
:101E80001397070141832392E18403D74184A94733
:101E9000B377F702C207C1838DEB2392018483D706
:101EA0006184BE84F935AA873E87C167938707801E
:101EB000F98F639DF4020547238AE18203D7618489
:101EC000B70700202396E70A15A003D7418495475A
:101ED000B377F702C207C18391EB613DAA8793F7FD
:101EE00007801397070141832393E1840100B240E7
:101EF0002244924441018280011106CE22CC00107E
:101F000083C7418393F7F70F63890726238A0182EA
:101F1000B707002083D7C70A13970701418383D7E8
:101F20006180C207C183630AF724B147A307F4FEA7
:101F300025A4B707002083D7C70A13970701418359
:101F400083D76180C207C183B98FC207C1833E872F
:101F50008347F4FEB357F740858B638A071EB707A4
:101F6000002083D7C70AC207C1833E878347F4FE98
:101F7000B357F740858B638A07140347F4FEB147D4
:101F8000631AF70289472307F4FE39A80347E4FEE2
:101F900093878183BA979823E9476304F70C8347B3
:101FA000E4FE85072307F4FE0347E4FE9D47E3FFB5
:101FB000E7FC7DA80347F4FEB547631AF70289479B
:101FC0002307F4FE39A80347E4FE93878183BA9779
:101FD000982391476309F7088347E4FE85072307A1
:101FE000F4FE0347E4FE9D47E3FFE7FC51A00347EF
:101FF000F4FEB947631AF70289472307F4FE39A8AC
:102000000347E4FE93878183BA979823D947630EE9
:10201000F7048347E4FE85072307F4FE0347E4FE45
:102020009D47E3FFE7FCA9A00347F4FEBD4763110A
:10203000F70489472307F4FE39A80347E4FE938792
:102040008183BA9798239D476303F7028347E4FE91
:1020500085072307F4FE0347E4FE9D47E3FFE7FC03
:1020600001A8010031A0010021A0010011A0010080
:102070000347E4FEA1476317F70093878183A38298
:10208000070025A80347E4FE93878183B306F70082
:102090008347E4FE1387170093878183B305F70016
:1020A0008347E4FE1D47B307F7403E863685EF10B1
:1020B000904593878183A383070083C78184FD179D
:1020C00013F7F70F2384E18459A00347F4FEB147C7
:1020D000631CF70083C7818413872700938781835C
:1020E000BA97694798A3A9A80347F4FEB547631CAC
:1020F000F70083C781841387270093878183BA976A
:10210000114798A335A80347F4FEB947631CF700AD
:1021100083C781841387270093878183BA975947A0
:1021200098A339A80347F4FEBD47631BF70083C794
:1021300081841387270093878183BA971D4798A3CB
:1021400083C78184850713F7F70F2384E1848347CE
:10215000F4FE8507A307F4FE0347F4FEBD47E3FA48
:10216000E7DCB707002083D7C70A1397070141832D
:102170002393E1800547A384E18483C7918495C3B9
:1021800085462146938581830545EFE0EFDAAA87EE
:10219000A306F4FE0347D4FE85476314F700A38427
:1021A00001840100F240624405618280011106CE83
:1021B00022CC0010232004FE232204FE232404FE4C
:1021C000232604FEB70710002320F4FE91472322A4
:1021D000F4FEC1472324F4FE85472326F4FE93072B
:1021E00004FE3E85EF00B0530100F24062440561F9
:1021F0008280011106CE22CC00109567138547FD21
:10220000EF10D04C9307800873B007800F100000C8
:10221000B7370240938707409C3313F7F70FB73760
:102220000240938707403D9B1377F70F98B33D65B6
:10223000EF0070691305000FEF00F06837E700E06A
:102240008567BA9783A707D12326F4FE37E700E016
:102250008567BA9783A707D1B7E600E013E787023F
:102260008567B69723A8E7D037E700E08567BA9778
:1022700083A707D113F7F7FD8327C4FE93F707025F
:10228000B7E600E05D8F8567B69723A8E7D037E70C
:1022900000E08567BA9783A707D1B7E600E013E7A8
:1022A00087008567B69723A8E7D073005010B7372B
:1022B000024093870740FC2393F7F70F918B95C754
:1022C000B7370240938707409C3313F7F70FB737B0
:1022D000024093870740136707011377F70F98B3FE
:1022E0009307800873A007809DA889450545EF10D6
:1022F0004010EFF02FBCEFF06FC5B7370240938767
:1023000007409C3313F7F70FB73702409387074016
:10231000136707011377F70F98B3EFE0AFA33D659D
:10232000EF00F056AA8799C73D65EF00D059EFF04E
:102330000FA929A81305000FEF007055AA8799C7A8
:102340001305000FEF003058EFF06FA793078008D8
:1023500073A0078095671385C7FDEF103037F240F3
:1023600062440561828001A097E1FF1F93810154BF
:1023700017610020130101C917350000130505F08E
:1023800097E5FF1F938505C81386818163FAC50011
:102390008322050023A0550011059105E3EAC5FE3F
:1023A00013858181938501CC6377B50023200500D7
:1023B0001105E36DB5FEFD42739002BCAD42739012
:1023C0004280B7620000938282087390023097E2E5
:1023D000FFFF938262C393E2320073905230EFF0BA
:1023E0006FAD97F2FFFF93828223739012347300D4
:1023F0002030011106CE22CC00102326A4FE032794
:10240000C4FEB727014093870740631DF700854549
:1024100013050020EF104023814513050020EF1025
:10242000A0221DA00327C4FEB73701409387078071
:10243000631CF700854513050040EF10E02081453F
:1024400013050040EF1040200100F2406244056196
:102450008280797122D60018232EA4FC232CB4FC90
:10246000232604FEA30504FE8327C4FDDC432326A4
:10247000F4FE0327C4FEB707F1E09387F7EFF98F67
:102480002326F4FE832784FD9843832784FD9C4FF5
:102490005D8F832784FDDC4F5D8F832784FDDC43C4
:1024A000A207D98F0327C4FED98F2326F4FE8327E2
:1024B000C4FD0327C4FED8C38327C4FD9C4723263D
:1024C000F4FE0327C4FEB7F7F1FF9387D77FF98F98
:1024D0002326F4FE832784FD984B832784FDDC4765
:1024E0005D8F832784FD9C478607D98F0327C4FE11
:1024F000D98F2326F4FE8327C4FD0327C4FE98C783
:102500008327C4FDDC572326F4FE0327C4FEB70748
:1025100010FFFD17F98F2326F4FE832784FDDC2BA3
:10252000FD1713F7F70F8347B4FED98FA305F4FE09
:102530008347B4FED2070327C4FED98F2326F4FEB7
:102540008327C4FD0327C4FED8D701003254456158
:102550008280011122CE00102326A4FE2324B4FE83
:10256000832784FE91CB8327C4FE9C4713E7170083
:102570008327C4FE98C709A88327C4FE9C4713F786
:10258000E7FF8327C4FE98C701007244056182807B
:10259000011122CE00102326A4FE2324B4FE83279B
:1025A00084FE91CB8327C4FE9C4713E70710832743
:1025B000C4FE98C709A88327C4FE9C4713F7F7EF0A
:1025C0008327C4FE98C7010072440561828001110F
:1025D00022CE00102326A4FE8327C4FE9C4713E7C7
:1025E00087008327C4FE98C701007244056182807A
:1025F000797122D60018232EA4FC232604FE8327FB
:10260000C4FD9C47A18B89C785472326F4FE19A0EA
:10261000232604FE8327C4FE3E8532544561828012
:10262000011122CE00102326A4FE8327C4FE9C475E
:1026300013E747008327C4FE98C701007244056171
:102640008280797122D60018232EA4FC232604FE52
:102650008327C4FD9C47918B89C785472326F4FEB9
:1026600019A0232604FE8327C4FE3E85325445610B
:102670008280011122CE00102326A4FE2324B4FE62
:10268000832784FE99CB8327C4FE9847B707500061
:102690005D8F8327C4FE98C719A88327C4FE984777
:1026A000B707B0FFFD177D8F8327C4FE98C70100D1
:1026B000724405618280797122D60018232EA4FC11
:1026C000AE873687A30DF4FCB287230DF4FCBA87DE
:1026D000A30CF4FC232604FE232404FE0347B4FDCC
:1026E000A54763F6E7068327C4FDDC472326F4FEEF
:1026F0008347B4FD138767FFBA878607BA971D47DC
:10270000B317F7002324F4FE832784FE93C7F7FF53
:102710000327C4FEF98F2326F4FE834694FD8347E6
:10272000B4FD138767FFBA878607BA97B397F60099
:102730002324F4FE0327C4FE832784FED98F232697
:10274000F4FE8327C4FD0327C4FED8C785A08327D2
:10275000C4FD9C4B2326F4FE0347B4FDBA878607CD
:10276000BA971D47B317F7002324F4FE832784FE8E
:1027700093C7F7FF0327C4FEF98F2326F4FE834691
:1027800094FD0347B4FDBA878607BA97B397F6005E
:102790002324F4FE0327C4FE832784FED98F232637
:1027A000F4FE8327C4FD0327C4FE98CB0347A4FD92
:1027B000994763E6E7068327C4FDDC5B2326F4FE26
:1027C0008347A4FD1387F7FFBA878A07BA977D4727
:1027D000B317F7002324F4FE832784FE93C7F7FF83
:1027E0000327C4FEF98F2326F4FE8346B4FD8347F6
:1027F000A4FD1387F7FFBA878A07BA97B397F60045
:102800002324F4FE0327C4FE832784FED98F2326C6
:10281000F4FE8327C4FD0327C4FED8DBE9A80347E1
:10282000A4FDB14763E6E7068327C4FD9C5B23262E
:10283000F4FE8347A4FD138797FFBA878A07BA97E8
:102840007D47B317F7002324F4FE832784FE93C744
:10285000F7FF0327C4FEF98F2326F4FE8346B4FD59
:102860008347A4FD138797FFBA878A07BA97B39760
:10287000F6002324F4FE0327C4FE832784FED98FA9
:102880002326F4FE8327C4FD0327C4FE98DBA5A0FE
:102890008327C4FDDC572326F4FE8347A4FD13875A
:1028A00037FFBA878A07BA977D47B317F700232403
:1028B000F4FE832784FE93C7F7FF0327C4FEF98F36
:1028C0002326F4FE8346B4FD8347A4FD138737FF18
:1028D000BA878A07BA97B397F6002324F4FE032732
:1028E000C4FE832784FED98F2326F4FE8327C4FDEC
:1028F0000327C4FED8D70100325445618280397164
:1029000006DE22DC80002326A4FCA30704FEB1A877
:102910000325C4FCEFF0BFCB01000325C4FCEFF09E
:102920003FCDAA87FDFB0325C4FCEFF07FCF01005C
:102930000325C4FC3933AA87E5FF8327C4FCF84785
:102940008347F4FE93F7F70F420741838607930608
:1029500004FFB6972394E7FE8347F4FE93F7F70F3F
:10296000850793F7F70FA307F4FE8347F4FE13F7E9
:10297000F70FA547E3FEE7F8A30704FEF1A023073E
:1029800004FE5DA08347E4FE93F7F70F8607130765
:1029900004FFBA9703D787FE8347E4FE93F7F70F48
:1029A00085078607930604FFB69783D787FE63F4EF
:1029B000E7068347E4FE93F7F70F8607130704FF44
:1029C000BA9783D787FE231BF4FC8347E4FE93F773
:1029D000F70F85070347E4FE1377F70FBA868607DC
:1029E000130704FFBA9703D787FE93971600930641
:1029F00004FFB6972394E7FE8347E4FE93F7F70FAF
:102A00008507035764FD420741838607930604FF49
:102A1000B6972394E7FE8347E4FE93F7F70F850705
:102A200093F7F70F2307F4FE8347E4FE13F7F70F3E
:102A3000A147E3F9E7F48347F4FE93F7F70F85071F
:102A400093F7F70FA307F4FE8347F4FE13F7F70F8E
:102A5000A547E3F6E7F2231B04FCA30704FE35A811
:102A60008347F4FE93F7F70F89078607130704FFE0
:102A7000BA9703D787FE835764FDC207C183BA970D
:102A8000C207C183231BF4FC8347F4FE93F7F70FBF
:102A9000850793F7F70FA307F4FE8347F4FE13F7B8
:102AA000F70F9547E3FEE7FA835764FD1397070195
:102AB00041839947B357F70213970701418383571F
:102AC00064FD93960701C1829947B3F7F602939686
:102AD0000701C1828D47B3D7F602C207C183BA97F7
:102AE000C207C183231BF4FC835764FDC207C18363
:102AF000056713070780B307F740C207C183C20702
:102B0000C1873E85F250625421618280411122C604
:102B10000008B7F7FF1F938747709C433E853244F8
:102B200041018280011122CE00102326A4FE8327BA
:102B3000C4FE9843C167F9177D8F8327C4FE98C3ED
:102B40008327C4FE23A007008327C4FE23A2070017
:102B50008327C4FE23A407008327C4FE23A60700FF
:102B60000327C4FEB7070240A107631BF700B7079E
:102B70000240D843B70702401367F700D8C345ACFB
:102B80000327C4FEB7070240F107631BF700B7072E
:102B90000240D843B70702401367070FD8C341ACC0
:102BA0000327C4FEB707024093870703631DF7009E
:102BB000B7070240D443B70702400567130707F081
:102BC000558FD8C3ADA40327C4FEB707024093872F
:102BD0004704631BF700B7070240D443B70702401E
:102BE0003D67558FD8C3A1A40327C4FEB707024091
:102BF00093878705631CF700B7070240D443B707E4
:102C0000024037070F00558FD8C315A40327C4FE11
:102C1000B70702409387C706631CF700B707024057
:102C2000D443B70702403707F000558FD8C301A43B
:102C30000327C4FEB707024093870708631CF70009
:102C4000B7070240D443B70702403707000F558F3C
:102C5000D8C3F1AA0327C4FEB70702409387874071
:102C6000631FF700B707024093870740D843B707B1
:102C70000240938707401367F700D8C34DAA032784
:102C8000C4FEB70702409387C741631FF700B70729
:102C9000024093870740D843B70702409387074015
:102CA0001367070FD8C361A20327C4FEB70702400A
:102CB000938707436311F702B707024093870740E2
:102CC000D443B7070240938707400567130707F00F
:102CD000558FD8C3A9AA0327C4FEB707024093871C
:102CE0004744631FF700B707024093870740D44368
:102CF000B7070240938707403D67558FD8C305AAA1
:102D00000327C4FEB7070240938787456310F70285
:102D1000B707024093870740D443B7070240938721
:102D2000074037070F00558FD8C311A20327C4FEF1
:102D3000B70702409387C7466310F702B707024000
:102D400093870740D443B70702409387074037076C
:102D5000F000558FD8C3E1A80327C4FEB70702408F
:102D6000938707486310F702B7070240938707402D
:102D7000D443B7070240938707403707000F558FAA
:102D8000D8C375A00327C4FEB7070240938707493D
:102D9000631FF700B70702409387074DD843B70773
:102DA00002409387074D1367F700D8C349A0032754
:102DB000C4FEB70702409387074A631FF700B707AF
:102DC00002409387074DD843B70702409387074DCA
:102DD0001367070FD8C3A1A80327C4FEB707024093
:102DE0009387074B6311F702B70702409387074D9C
:102DF000D443B70702409387074D0567130707F0D1
:102E0000558FD8C32DA00327C4FEB7070240938770
:102E1000074C631EF700B70702409387074DD44362
:102E2000B70702409387074D3D67558FD8C3010010
:102E3000724405618280797122D60018232EA4FC89
:102E4000232CB4FC232604FE8327C4FD9C432326A5
:102E5000F4FE0327C4FEE177BD07F98F2326F4FEB5
:102E6000832784FD9847832784FD9C535D8F8327A8
:102E700084FD9C4B5D8F832784FDDC4B5D8F832716
:102E800084FD9C4F5D8F832784FDDC4F5D8F8327FE
:102E900084FDDC535D8F832784FD9C57D98F0327E6
:102EA000C4FED98F2326F4FE8327C4FD0327C4FE66
:102EB00098C3832784FDD8478327C4FDD8C38327BD
:102EC00084FD98438327C4FD98C7832784FDD84396
:102ED0008327C4FDD8C701003254456182800111A7
:102EE00022CE00102326A4FE2324B4FE832784FED2
:102EF00091CB8327C4FE9C4313E717008327C4FEAE
:102F000098C311A88327C4FE9843C167F9177D8F22
:102F10008327C4FE98C301007244056182807971E1
:102F200022D60018232EA4FC232604FEB707014056
:102F3000938707402326F4FE8327C4FDDC47638084
:102F40000712B70701409387074094438327C4FDC6
:102F50009C4313C7F7FFB707014093870740758F5E
:102F600098C3B707014093870740D4438327C4FD24
:102F70009C4313C7F7FFB707014093870740758F3E
:102F8000D8C38327C4FDDC430327C4FEBA97232696
:102F9000F4FE8327C4FE94438327C4FD984383270C
:102FA000C4FE558F98C3B7070140938707409447E5
:102FB0008327C4FD9C4313C7F7FFB70701409387DE
:102FC0000740758F98C7B707014093870740D447DC
:102FD0008327C4FD9C4313C7F7FFB70701409387BE
:102FE0000740758FD8C78327C4FD9847C147631F23
:102FF000F702B70701409387074094478327C4FD32
:103000009843B707014093870740558F98C7B70784
:10301000014093870740D4478327C4FD9843B707EF
:10302000014093870740558FD8C7B1A8B707014023
:10303000938707402326F4FE8327C4FD9C4703277C
:10304000C4FEBA972326F4FE8327C4FE9443832745
:10305000C4FD98438327C4FE558F98C32DA08327B2
:10306000C4FDDC430327C4FEBA972326F4FE83275E
:10307000C4FE94438327C4FD9C4313C7F7FF8327F3
:10308000C4FE758F98C30100325445618280797106
:1030900022D60018232EA4FC232604FEB7070140E5
:1030A00093870740D84B8327C4FDF98F89C785478D
:1030B0002326F4FE19A0232604FE8327C4FE3E85A2
:1030C000325445618280011122CE00102326A4FED5
:1030D000B7070140938707400327C4FED8CB010000
:1030E000724405618280397122DE80002326A4FCAF
:1030F0002324B4FC232604FE232004FE232404FE00
:10310000232E04FC232204FE232C04FC832784FCAE
:103110009C47BD8B2326F4FE832784FC9C47C18BF0
:1031200089CB832784FCDC430327C4FED98F232665
:10313000F4FE832784FC9E2393F7F70FE9CF8327C0
:10314000C4FC9C432322F4FE232404FE5DA88327B1
:1031500084FE0547B317F700232EF4FC832784FC75
:103160009E233E878327C4FDF98F2320F4FE032787
:1031700004FE8327C4FD6311F708832784FE8A07B2
:10318000232EF4FC8327C4FD3D47B317F700232CFF
:10319000F4FC832784FD93C7F7FF032744FEF98FD0
:1031A0002322F4FE8327C4FD0327C4FEB317F700D0
:1031B000032744FED98F2322F4FE832784FC9847FB
:1031C00093078002631BF700832784FE05473317AC
:1031D000F7008327C4FCD8CB05A0832784FC98473D
:1031E00093078004631AF700832784FE054733178B
:1031F000F7008327C4FC98CB832784FE850723240C
:10320000F4FE032784FE9D47E3F3E7F48327C4FC21
:10321000032744FE98C3832784FC9A239307F00F67
:1032200063F0E70E8327C4FCDC432322F4FE23244F
:1032300004FE6DA8832784FEA1070547B317F70096
:10324000232EF4FC832784FC9E233E878327C4FD22
:10325000F98F2320F4FE032704FE8327C4FD6312A5
:10326000F708832784FE8A07232EF4FC8327C4FDF6
:103270003D47B317F700232CF4FC832784FD93C745
:10328000F7FF032744FEF98F2322F4FE8327C4FDB2
:103290000327C4FEB317F700032744FED98F232268
:1032A000F4FE832784FC984793078002631BF70092
:1032B000832784FEA10705473317F7008327C4FC43
:1032C000D8CB832784FC984793078004631BF700BF
:1032D000832784FEA10705473317F7008327C4FC23
:1032E00098CB832784FE85072324F4FE032784FEDE
:1032F0009D47E3F1E7F48327C4FC032744FED8C3CA
:103300000100725421618280011122CE0010232617
:10331000A4FE0327C4FE23A6E184010072440561D4
:103320008280797122D60018232EA4FC03A7C184C1
:103330008947631BF7048327C4FD98338D4763E5F2
:10334000E7048327C4FD9C23BE868327C4FD9C33EA
:103350009A071397870161878327C4FDBC239607CB
:10336000E207E187D98FE207E18793F7F70F23267A
:10337000D4FEA305F4FE37E700E08327C4FEBA9726
:103380000347B4FE2380E7408327C4FDDC439DC789
:103390008327C4FD9C232322F4FE832744FEFD8B58
:1033A0000547B316F70037E700E0832744FE95830F
:1033B000938707048A07BA9794C305A88327C4FD97
:1033C0009C232320F4FE832704FEFD8B0547B316C0
:1033D000F70037E700E0832704FE9583938707060D
:1033E0008A07BA9794C30F10000001003254456158
:1033F0008280797122D60018232EA4FCAE87A30DFB
:10340000F4FC232604FEB77700409C432326F4FEF9
:103410008327C4FEF19B2326F4FE0327C4FE8327E3
:10342000C4FDD98F2326F4FEB77700400327C4FEDE
:1034300098C337E700E08567BA9783A707D1B7E657
:1034400000E013E747008567B69723A8E7D0034756
:10345000B4FD85476313F70237E700E08567BA9745
:1034600083A707D1B7E600E013F777FF8567B69724
:1034700023A8E7D07300501051A837E700E0856714
:10348000BA9783A707D12324F4FE37E700E08567C6
:10349000BA9783A707D1B7E600E013E787028567ED
:1034A000B69723A8E7D037E700E08567BA9783A7E8
:1034B00007D113F7F7FD832784FE93F70702B7E6DA
:1034C00000E05D8F8567B69723A8E7D037E700E077
:1034D0008567BA9783A707D1B7E600E013E78700AF
:1034E0008567B69723A8E7D07300501037E700E050
:1034F0008567BA9783A707D1B7E600E013E787008F
:103500008567B69723A8E7D07300501037E700E02F
:103510008567BA9783A707D1B7E600E013F7B7FF2F
:103520008567B69723A8E7D00100325445618280B1
:10353000797122D60018232EA4FC232604FEB71787
:103540000240DC432326F4FE0327C4FED177FD1797
:10355000F98F2326F4FE0327C4FE8327C4FDD98FE9
:103560002326F4FEB71702400327C4FED8C3010088
:10357000325445618280011122CE00102326A4FE20
:103580002324B4FE832784FE99CBB7170240D44B83
:10359000B71702400327C4FE558FD8CB21A8B71711
:1035A0000240D44B8327C4FE13C7F7FFB71702406E
:1035B000758FD8CB0100724405618280011122CE43
:1035C00000102326A4FE2324B4FE832784FE99CB77
:1035D000B7170240944FB71702400327C4FE558F18
:1035E00098CF21A8B7170240944F8327C4FE13C772
:1035F000F7FFB7170240758F98CF0100724405613D
:103600008280011122CE00102326A4FE2324B4FEC2
:10361000832784FE99CBB7170240D44FB7170240D7
:103620000327C4FE558FD8CF21A8B7170240D44F27
:103630008327C4FE13C7F7FFB7170240758FD8CF93
:103640000100724405618280011122CE0010232600
:10365000A4FE2324B4FE832784FE99CBB71702402F
:10366000D447B71702400327C4FE558FD8C721A8F7
:10367000B7170240D4478327C4FE13C7F7FFB71715
:103680000240758FD8C70100724405618280011124
:1036900022CE00102326A4FEB7170240D457B71736
:1036A0000240370700F97D17758FD8D7B71702404A
:1036B000D4578327C4FE13978701B7170240558F4D
:1036C000D8D70100724405618280011122CE00101A
:1036D0002326A4FEB7170240D457B7170240370776
:1036E00000F87D17758FD8D7B7170240D4578327B6
:1036F000C4FE1397B701B7170240558FD8D7010002
:10370000724405618280011122CE00102326A4FE9E
:10371000B7170240D457B7170240370700D07D17BC
:10372000758FD8D7B7170240D4578327C4FE139795
:10373000C701B7170240558FD8D701007244056101
:103740008280011122CE00102326A4FE8327C4FE0E
:1037500099CBB7170240D457B7170240370700403C
:10376000558FD8D719A8B7170240D457B7170240BA
:10377000370700C07D17758FD8D7010072440561E7
:103780008280011122CE00102326A4FEB71702402A
:10379000D457B7170240370700801347F7FF758FDC
:1037A000D8D7B7170240D4578327C4FE1397F70121
:1037B000B7170240558FD8D7010072440561828047
:1037C000797122D60018232EA4FC232CB4FC2317D5
:1037D00004FE8327C4FD9E232317F4FE0327C4FDA4
:1037E000B7370140938707C06306F7060327C4FD78
:1037F000B70700406300F7060327C4FDB707004082
:10380000938707406308F7040327C4FDB7170040F8
:10381000938707806300F7040327C4FDB7170040B0
:10382000938707C06308F7020327C4FDB737014039
:10383000938707406300F7020327C4FDB757014091
:10384000938707C06308F7000327C4FDB7570140FB
:103850006310F7028357E4FE93F7F7F82317F4FE9B
:10386000832784FDBA238357E4FED98F2317F4FE00
:103870000327C4FDB71700406308F7020327C4FD00
:10388000B7170040938707406300F7028357E4FEB1
:1038900093F7F7CF2317F4FE832784FDFA2383578A
:1038A000E4FED98F2317F4FE8327C4FD0357E4FEFB
:1038B0009AA3832784FDDA238327C4FDDAB78327FD
:1038C00084FD9A238327C4FD9AB70327C4FDB73725
:1038D0000140938707C06308F7020327C4FDB73789
:1038E0000140938707406300F7020327C4FDB757E1
:1038F0000140938707C06308F7000327C4FDB7574B
:103900000140631BF700832784FD9C271397070161
:1039100041838327C4FD9ABB8327C4FD0547DAABE7
:103920000100325445618280011122CE001023260D
:10393000A4FE2324B4FE832784FE99CF8327C4FEEC
:103940009E23C207C18393E71700139707014183A2
:103950008327C4FE9AA329A88327C4FE9E23C207F7
:10396000C183F99B1397070141838327C4FE9AA360
:103970000100724405618280011122CE00102326CD
:10398000A4FEAE872322C4FE2315F4FE832744FE43
:103990008DC38327C4FEDE27139707014183835716
:1039A000A4FED98F1397070141838327C4FEDAA7AA
:1039B00025A08327C4FEDE27139707014183835781
:1039C000A4FE93C7F7FFC207C183F98F13970701BE
:1039D00041838327C4FEDAA7010072440561828017
:1039E000797122D60018232EA4FCAE87231DF4FC87
:1039F000232604FE231504FE231404FE8327C4FD9E
:103A00009E2B1397070141838357A4FDF98F23153C
:103A1000F4FE8327C4FDDE271397070141838357F4
:103A2000A4FDF98F2314F4FE8357A4FE81CB8357A2
:103A300084FE89C785472326F4FE19A0232604FEA9
:103A40008327C4FE3E85325445618280011122CE17
:103A500000102326A4FEAE872315F4FE8357A4FE90
:103A600093C7F7FF1397070141838327C4FE9AABDF
:103A70000100724405618280011122CE00102326CC
:103A8000A4FEAE872315F4FE8357A4FE93F7F71F19
:103A90001397070141838327C4FEDAA30100724410
:103AA00005618280797122D60018232EA4FCAE878E
:103AB000231DF4FC232604FE8327C4FD9E231397B5
:103AC000070141838357A4FDF98FC207C18389C7CA
:103AD00085472326F4FE19A0232604FE8327C4FE6F
:103AE0003E85325445618280411122C60008B707E5
:103AF000002003A7870AB7177A0093870720B357D8
:103B0000F70213F7F70F2388E18483C70185139722
:103B1000070141839307803EB307F702139707011C
:103B200041832399E184010032444101828079710B
:103B300022D60018232EA4FC37F700E0544337F7B1
:103B400000E0F99A54C303C70185BA860327C4FD70
:103B50003307D7022326E4FE37F700E08326C4FEAE
:103B6000B68701481CCB232A0701B7F700E098432A
:103B7000B7F700E01367070198C3B7F700E0984371
:103B8000B7F700E01367170298C30100B7F700E02A
:103B9000DC4313F717008547E31AF7FEB7F700E099
:103BA0009843B7F700E0799B98C301003254456110
:103BB0008280797122D60018232EA4FC37F700E00A
:103BC000544337F700E0F99A54C303D72185BA86E6
:103BD0000327C4FD3307D7022326E4FE37F700E0AE
:103BE0008326C4FEB68701481CCB232A0701B7F7FA
:103BF00000E09843B7F700E01367070198C3B7F7F1
:103C000000E09843B7F700E01367170298C301007C
:103C1000B7F700E0DC4313F717008547E31AF7FE18
:103C2000B7F700E09843B7F700E0799B98C301002D
:103C3000325445618280797106D622D40018232E31
:103C4000A4FC232CB4FC232AC4FC232604FE232634
:103C500004FE81A0010093050004B74701401385CD
:103C600007808935AA87E5DB832784FD1387170042
:103C7000232CE4FC83870700C207C183BE85B747B6
:103C8000014013850780CD3B8327C4FE850723268B
:103C9000F4FE0327C4FE832744FDE34DF7FA832790
:103CA00044FD3E85B250225445618280011122CEEE
:103CB00000102326A4FE03A781808327C4FE3E971D
:103CC000938701CC636DF70003A781808327C4FE2F
:103CD0003E97B78700209387078063F4E700FD577E
:103CE00039A803A781808327C4FE3E9723A4E180DF
:103CF00003A781808327C4FEB307F040BA973E85AF
:103D0000724405618280B3C7A5008D8B3307C5005F
:103D100081E78D4763EDC700AA87637EE50894219C
:103D200085078505A38FD7FEE3EBE7FE82809376B8
:103D30003500AA8789CA942185078505A38FD7FEF8
:103D400093F63700C5BF9376C7FF138606FE63F070
:103D5000C70683A3050083A2450083AF850003AF98
:103D6000C50083AE050103AE450103A3850183A809
:103D7000C5019385450223A0770003A8C5FF23A2B0
:103D8000570023A4F70123A6E70123A8D70123AAFC
:103D9000C70123AC670023AE17019387470223AE08
:103DA00007FF75B790419107910523AEC7FEE3EB7E
:103DB000D7FEE3E6E7F6828039713EDA2ED232D4BE
:103DC00036D63AD842DC46DE9387C18022CC804387
:103DD00026CA06CEAA8409C41C4C99E32285ED2983
:103DE0000C4454102686228536C6EF007012F2402D
:103DF0006244D24421618280011126CA4AC806CE9B
:103E000022CC4EC652C4AA842E8901C51C4D91E312
:103E1000E1219C4C804499E326857D299717000079
:103E20009387073E631BF402C0405E24A18BB1C799
:103E30001C48A1C7FD59294A1C4483450900FD17A8
:103E4000B1E91CC463DD07062286A94526856120E9
:103E5000FD576308F502294535A0971700009387A1
:103E6000273C6314F4008044C9B797170000938778
:103E70002737E31CF4FAC0444DBFA2852685112ADA
:103E800055D97D55F2406244D2444249B249224A52
:103E9000056182801CC4050963D70700184C63CAFA
:103EA000E700638845011C401387170018C08CA3E6
:103EB00061B7228626850520E31035F9D9B71C4065
:103EC0001387170018C0294798A371B79387C1803B
:103ED000AA85884315B7011122CC26CA4AC806CE46
:103EE0004EC6AA842E89328401C51C4D91E3ED266D
:103EF000971700009387C7306317F406C0401C4C27
:103F00001CC45E24A18BC1C31C48B5CF1C4808400B
:103F10009379F90F1379F90F1D8D5C486346F5000D
:103F2000A2852685692C25E51C440505FD171CC4C2
:103F30001C401387170018C0238037015C48638832
:103F4000A7005E24858B81CBA9476316F900A28563
:103F50002685B5240DEDF24062444A85D24442499B
:103F6000B24905618280971700009387672B63141D
:103F7000F400804469B79717000093876726E31021
:103F8000F4F8C044ADBFA2852685212041D17D59DA
:103F9000D9B741119387C18026C2844322C44AC045
:103FA00006C62A892E8489C49C4C99E326852D2631
:103FB000971700009387C724631BF402C0400317C0
:103FC000C40093170701C18393F68700ADEA93F607
:103FD000070195EEA5472320F900136707045AA4AB
:103FE0007D55B24022449244024941018280971794
:103FF00000009387E7226314F4008044C9B7971741
:1040000000009387E71DE31CF4FAC0444DBF918B79
:104010009DC34C5889C9930744046384F5004A85BD
:104020003123232A04025E242322040093F7B7FDE0
:104030005EA41C481CC05E2493E787005EA41C4855
:1040400099EB5E241307002093F707286385E700A8
:10405000A2854A85A1215E2413F717001DC35C4881
:1040600023240400B307F0401CCC1C480145B5FBD9
:104070008317C40013F707082DD793E707045EA43E
:1040800085B7898B014791E3584818C4F9BFDE25ED
:10409000011122CC26CA06CE4AC84EC613F78700A5
:1040A000AA842E8479EBD841634DE000B841634A7D
:1040B000E0000145F2406244D2444249B249056100
:1040C000828058547DD703A904009396370123A01A
:1040D000040063DB060670485E24918B99C75C4040
:1040E0001D8E5C5899C33C401D8E5C540C5081461B
:1040F00026858297FD575A24631DF5009440F547A5
:1041000063E8D706B70740208507B3D7D700858B6C
:10411000A5C31C48232204001CC09317370163D891
:104120000700FD576314F5009C4091E368C84C58A4
:1041300023A02401BDDD930744046384F500268594
:10414000F526232A0402B5B70C500146854626857C
:104150000297FD572A86E311F5F89C40B5DF7547B5
:104160006385E70059476393E70423A0240191B7CF
:10417000136707045AA47D5535BF83A90501E38A57
:1041800009F203A905008D8B23A0350133093941BC
:10419000014791E3D84918C4E35D20F11C540C5049
:1041A000CA864E86268582976347A0005E2493E7E1
:1041B00007045EA4C9B7AA993309A940F1BF9C4975
:1041C000B9CF011122CC06CE2A8411C51C4D81E73E
:1041D0002EC61922B2459717000093876702639B8A
:1041E000F5004C408397C50095C722856244F24094
:1041F000056171BD97170000938787026394F500EE
:104200000C44CDB797170000938787FDE39CF5FC1E
:104210004C44C9BFF24062440145056182800145BA
:104220008280411122C406C62A844EA572A523208D
:104230000500232205002324050023220506232848
:104240000500232A0500232C05002146814513057E
:10425000C505EFB0FFF697170000938787B15CD0D4
:10426000971700009387A7B31CD497170000938774
:1042700087B75CD4971700009387E7B900D01CD8A4
:10428000B24022444101828097050000938565F386
:10429000A9A2411126C2130680069384F5FFB384B8
:1042A000C4024AC02E8922C406C6938544071D262F
:1042B0002A8401CD2320050023222501310508C4CD
:1042C000138684068145EFB0BFEF2285B2402244B9
:1042D00092440249410182801C4DADE3411106C662
:1042E00022C497070000938767FA1CD59387418102
:1042F0009C43232405042326050423280504631472
:10430000F50085471CCD2A841D2848C02285052834
:1043100008C422852D2048C44840014691451137E4
:1043200008440546A545F53D48440946C945D53DDF
:1043300085471CCCB24022444101828082804111D9
:104340009387418126C284434AC006C69C4C22C43E
:104350002A8999E326854937938484048044DC4084
:10436000FD1763D607009C40B9CF8440C5BF031733
:10437000C40039E7C17785072322040623200400FF
:1043800023220400232404005CC423280400232ADD
:104390000400232C0400214681451305C405EFB019
:1043A0003FE2232A0402232C0402232404042326AC
:1043B00004042285B2402244924402494101828091
:1043C0001304840671BF91454A85E13588C051FDCB
:1043D000B1472320F9000144E9BF797122D44AD0C2
:1043E00052CC56CA5AC85EC606D626D24ECE2A8AA5
:1043F000AE8A130485040149054BFD5B09ECB250FC
:1044000022544A8592540259F249624AD24A424B96
:10441000B24B45618280044483294400FD1963D472
:1044200009000040E1BFDE24637BFB008397E400CA
:1044300063877701A6855285829A3369A9009384A0
:104440008406E9BF1971A6DAAE848395E500A2DC83
:1044500086DE328463DB0500DE2423A0060093F7AA
:10446000070885E7930700401DA0300836C6EF0017
:104470001020B246E34205FE7247BD67F98F797797
:10448000BA9793B717009CC2F1BF930700041CC0F2
:10449000F6506654D654014509618280DE2501112B
:1044A00022CC06CE26CA4AC8898B2E8489CF930790
:1044B00074041CC01CC885475CC8F2406244D244E6
:1044C00042490561828074003000AA84A53FA2455C
:1044D0002A892685012219E98317C40013F70720CA
:1044E00069FFF19B93E727005EA4D1B7970700000F
:1044F0009387C7D99CD45E2408C008C893E70708EF
:104500005EA4A2475CC8B24781CF8315E40026852C
:10451000EF00901811C55E24F19B93E717005EA48D
:104520005E243369F9002316240141BFDDC183A74E
:10453000C5FF411122C406C626C21384C5FF63D33A
:1045400007003E94AA84EF00F01B938741859C43AB
:1045500081EF2322040023AA81842244B2402685CD
:10456000924441016F00301A637EF4001440330717
:10457000D4006396E7009843DC43369718C05CC0CC
:10458000D9BFBA87D84319C3E37DE4FE9443338689
:10459000D700631F86001040B29694C33386D700BD
:1045A000E31DC7FA10435843B29694C3D8C375B7F6
:1045B0006375C400B1479CC04DB71040B306C4003A
:1045C0006316D70014435843B29614C058C0C0C3F2
:1045D00069B78280011126CA93843500F19806CE0E
:1045E00022CC4AC84EC6A104B14763F3F404B144D7
:1045F00063E2B4042A89EF00F01093874185984361
:104600003A8439E0938781859C4391E781454A85C7
:10461000152F23ACA184A6854A852D27FD59631942
:104620003507B1472320F9004A85EF00D00D29A0B6
:10463000E3D004FCB1471CC10145F2406244D244BE
:104640004249B249056182801C40858F63CF0702D1
:10465000AD4663F6F6001CC03E9404C031A05C4039
:104660006313870223AAF1844A85EF00D00913055A
:10467000B4009307440061993307F5405DDF3A9435
:10468000898F1CC05DBF5CC3C5B72287404095BF02
:10469000130435007198E30285FCB305A4404A85F4
:1046A0005525E31C35FBB5BF1C46FD171CC663DA58
:1046B0000700184E63C5E700A9476394F5006FF043
:1046C0009F811C422E851387170018C28CA38280FD
:1046D000011122CC26CA4AC84EC652C406CE2A8927
:1046E000AE893284B304D6007D5A63149400014528
:1046F00001A80C204E864A85453F0504E31745FF77
:10470000F2406244D2444249B249224A0561828061
:10471000357122CD26CB4AC94EC706CF52C556C3E6
:104720005AC1DEDEE2DCE6DAAA89AE84328936845A
:1047300009C51C4D99E3EFF03FBA97170000938726
:1047400027AC6397F40C83A44900DE24A18BFDC33E
:104750009C48EDC393070002A304F10293070003F2
:1047600002D22305F10222C6930B5002971A0000D1
:10477000938A0AAD054C294B4A841C2099C3639E39
:10478000770DB30C2441638D0C00E6864A86A6851E
:104790004E853D3FFD57630FF51C9256E69636D287
:1047A0001C206389071CFD571309140002C802CEA0
:1047B0003ECA02CCA309010482D4834509001546F0
:1047C00056852D2713041900C24751E913F7070135
:1047D00009C713070002A309E10413F7870009C7FB
:1047E0001307B002A309E104834609001307A002DE
:1047F000638FE606F2474A848146254618209305D2
:104800001400130707FD6377E60AB5CA3ECE85A8F4
:10481000971700009387C7A06395F40083A48900CD
:104820002DB7971700009387A79BE390F4F283A41A
:10483000C90021BFA6854E85EFF0AFF501DD7D559E
:10484000FA406A44DA444A49BA492A4A9A4A0A4B1F
:10485000F65B665CD65C0D618280050439BF33056A
:1048600055413315AC00C98F3EC82289B9B73247CC
:1048700093064700184336C6634707023ACE18200E
:104880009307E002631DF70418309307A002631B2F
:10489000F702B2470904138747009C433AC663C135
:1048A00007023ECA2DA83307E04093E727003ACE1F
:1048B0003EC8F1B7B387670385462E84BA973DBFDC
:1048C000FD57C5B7050402CA814681472546182011
:1048D00093051400130707FD6374E606F9F20C2034
:1048E0000D461715000013052596092511CD9717BC
:1048F0000000938767951D8D93070004B397A70069
:10490000424505045D8D2AC80C2019461715000084
:104910001305C593130914002304B102C12B35C13B
:1049200097B7FFFF9387076E95E74247B247137724
:10493000071009CF91073EC69257D2973ED22DBDA0
:10494000B387670385462E84BA9751B79D07E19BCD
:10495000A107D5B77800970600009386A6D72686CC
:104960000C084E8597000000E7000000FD572A8ADA
:10497000E314F5FCDE2493F70704E39207EC1255E9
:10498000C1B57800970600009386C6D426860C0829
:104990004E85012AE1BF797156CA9C49BA8A984569
:1049A00022D426D24ECE52CC06D64AD05AC85EC6A3
:1049B000AA892E84B284368A63D3E700BA879CC062
:1049C0000347340419C385079CC01C4093F70702B2
:1049D00081C79C4089079CC00329040013796900A2
:1049E000631A0900130B9401FD5B5C449840998F96
:1049F000634CF9041C408346340493F70702B33632
:104A0000D000A5EB13063404D2854E85829AFD575B
:104A10006303F5041C4011469840998B544481442B
:104A20006397C700B384E64063D3040081441C4409
:104A300018486354F700998FBE94014969047D5B5F
:104A400063982405014509A885465A86D2854E8576
:104A5000829A631E75017D55B250225492540259B8
:104A6000F249624AD24A424BB24B45618280050903
:104A7000ADBF3307D40013060003A301C7040347E7
:104A8000540493871600A2978906A381E7049DBF6B
:104A900085462286D2854E85829AE30E65FB0509FE
:104AA00045B7797122D426D24AD04ECE06D652CC02
:104AB00056CA5AC8B689942D930790063289AA849B
:104AC0002E8413863504638DF60263E2D7069307BE
:104AD00080056386F61863EDD700638E0620930782
:104AE0003004638EF60A930A24042301D404C9A077
:104AF000930730066385F60A93074006E395F6FEB2
:104B00001C40084393F6070893054500C5C61C41A1
:104B10000CC363D807001307D002B307F040A3010A
:104B2000E404970600009386E672294765A8930778
:104B300000076382F61663E5D7029307E0066389F0
:104B4000F6189307F006E390F6FA0C401C4313F8AE
:104B50000508138547006307080608C39C4385A81A
:104B600093075007E383F6FE930780076389F612E5
:104B700093073007E399F6F61C43D04181459386AD
:104B8000470014C383AA070056858D2601C5330547
:104B9000554148C05C401CC8A301040461A81C43E3
:104BA000930A2404938647009C4314C32301F4040E
:104BB0008547D5B793F607041C410CC3B9DAC20781
:104BC000C18781BF93F5050408C3C9D99E23130784
:104BD000F0066387E60E970600009386A6672947CE
:104BE000A30104044C400CC463C5050008406D9942
:104BF00008C099E3B28A89CDB28AB3F5E702FD1AFB
:104C0000B6958C212380BA00B3D5E70263F0E70C98
:104C1000A147631EF7001C40858B91CB58401C4870
:104C200063C7E70093070003A38FFAFEFD1A33065C
:104C3000564110C84E87CA867000A2852685EFF0BF
:104C40009FD57D5A631D450B7D55B2502254925419
:104C50000259F249624AD24A424B45618280A3829C
:104C6000D504970600009386E65E0C40084313F8CF
:104C700005081C411105630D080208C313F7150050
:104C800001C793E505020CC04147B9FB0C4093F501
:104C9000F5FD0CC0B1B79C4193E707029CC1930797
:104CA0008007A302F404970600009386E65B75BFB5
:104CB00013F8050408C3E30308FCC207C1837DBFE2
:104CC0009706000093860659214719BFAE8735B76E
:104CD00094411C43CC4913F806081385470063062A
:104CE000080008C39C438CC339A008C393F606048C
:104CF0009C43F5DA8EA323280400B28A25BF14480A
:104D00005686CA8526858299E30045F51C40898B25
:104D10008DE7B2474844E35AF5F23E853DB78546F4
:104D20005686CA8526858299E30065F3050A5C44A8
:104D30003247998FE345FAFEE9BF014A930A94018D
:104D40007D5BF5B7411122C42A842E8523AE01CAAA
:104D500006C6EFE0BFF5FD576317F5009387C1CB9B
:104D60009C4391C31CC0B240224441018280411146
:104D700022C42E848395E50006C679226349050086
:104D80007C48AA977CC8B2402244410182805E24BC
:104D90007D777D17F98F5EA4FDB7DE25011122CC4A
:104DA00026CA4AC84EC606CE93F70710AA842E8498
:104DB0003289B68991C78395E50089460146092263
:104DC0005E247D777D17F98F5EA48315E40062442D
:104DD000F240CE864A86B24942492685D2440561D0
:104DE00025A8411122C42E848395E50006C6C92852
:104DF000FD575A24631AF500FD77FD17F98F5EA45D
:104E0000B2402244410182808567D98F5EA468C880
:104E1000C5BF8395E50005A8411122C42A842E85CB
:104E2000B285368623AE01CA06C6EFE0DFE0FD5745
:104E30006317F5009387C1CB9C4391C31CC0B2405C
:104E4000224441018280411122C42A842E8523AE4E
:104E500001CA06C6C520FD576317F5009387C1CB6D
:104E60009C4391C31CC0B240224441018280411145
:104E700022C42A842E85B28523AE01CA06C6C92063
:104E8000FD576317F5009387C1CB9C4391C31CC0AA
:104E9000B240224441018280411122C42A842E85DD
:104EA00023AE01CA06C65D20FD576317F500938740
:104EB000C1CB9C4391C31CC0B240224441018280BB
:104EC000411122C42A842E85B285368623AE01CABA
:104ED00006C65920FD576317F5009387C1CB9C4345
:104EE00091C31CC0B24022444101828093F5F50F6A
:104EF0002A966314C500014582801C21E38EB7FE0B
:104F00000505C5BF82808280411122C42A842E8576
:104F1000B285368623AE01CA06C6A920FD5763179F
:104F2000F5009387C1CB9C4391C31CC0B24022447F
:104F3000410182809307800523AEF1CA7D558280AE
:104F40009307800523AEF1CA7D55828093078005C3
:104F500023AEF1CA014582809307800523AEF1CAD2
:104F60007D5582809307800523AEF1CA7D558280EE
:104F700053797374656D436C6B3A25640D0A0000B8
:104F80004368697049443A253038780D0A000000BA
:104F9000555342485320436F6D706F736974652099
:104FA0004B4D2044657669636520546573740D002C
:104FB0004B42205363616E20496E6974204F4B2130
:104FC0000D00000054494D3320496E6974204F4B49
:104FD000210D0000536C6565700D000057616B6515
:104FE0000D000000960E0000960E0000FE0D000061
:104FF0004A0E0000960E0000960E0000960E00006D
:10500000960E0000960E0000101400005C0D0000CB
:10501000B60D00002E13000014110000041400004F
:10502000AA11000004140000C6100000BE0E00000B
:1050300004140000D8100000FC100000121300003F
:10504000141400005E100000E80E0000FE0E0000C8
:10505000C00F00005E1000005E100000481000004D
:105060005E1000005E1000005E1000005E10000088
:105070005E1000005E1000005E1000005E10000078
:105080005E1000005E1000005E1000005E10000068
:105090005E1000005E1000005E1000005E10000058
:1050A0005E1000005E1000005E1000005E10000048
:1050B0005E1000005E1000005E1000005E10000038
:1050C0005E1000005E100000300F0000760F000040
:1050D0001201000200000040861A00FE00010102D9
:1050E0000301000009023B00020100A03209040094
:1050F000000103010100092111010001223E000706
:1051000005810308000A09040100010301020009E6
:10511000211001000122340007058203080001006C
:1051200005010906A101050719E029E71500250178
:105130007501950881029501750881019503750136
:10514000050819012903910295057501910195063C
:10515000750826FF000507190029918100C000008D
:1051600005010902A1010901A1000509190129038D
:1051700015002501750195038102750595018101D1
:1051800005010930093109381581257F7508950316
:105190008106C0C00A0600020000004000000000B6
:1051A0000E037700630068002E0063006E000000AD
:1051B0001203430048003300320056003300300031
:1051C0007800000016033000310032003300340054
:1051D00035003600370038003900000000000000BC
:1051E00000000000000000000000000000000000BF
:1051F00000000000000000000000000000000000AF
:10520000000000000000000000000000000000009E
:10521000000000000000000000000000000000008E
:10522000000000000000000000000000000000007E
:10523000000000000000000000000000232D302BC3
:1052400020000000686C4C0065666745464700001A
:1052500030313233343536373839414243444546AC
:10526000000000003031323334353637383961626E
:085270006364656600000000A4
:10527800000000000000000000AAAAAAAAAAAAAA80
:10528800AAEEEEEEEEEEEEEEEEFEFFFFFFFFFFFF04
:10529800FFFFFFFFFF7FBFDFEFF7FBFDFC7EBFDFF8
:1052A800EFF7FBFD7E00000000000000000000009A
:1052B800010203040607080900000000FC51000071
:1052C8001C520000DC51000000000000000000003B
:1052D80000000000000000000000000000000000C6
:1052E80000000000000000000000000000000000B6
:1052F80000000000000000000000000000000000A6
:105308000000000000000000000000000000000095
:10531800000000000000000000D8B80500F000F010
:105328006805002048000020040309044800002004
:00000001FF
